:100000000C942A000C9447000C9447000C94470071
:100010000C9447000C9447000C9447000C94470044
:100020000C9447000C9447000C9486120C943A12DE
:100030000C9447000C9447000C9447000C94470024
:100040000C9447000C9447000C9447000C94470014
:100050000C94470011241FBECFE5D8E0DEBFCDBF12
:1000600011E0A0E6B0E0E4E3F7E202C005900D92F3
:10007000A238B107D9F711E0A2E8B1E001C01D92A2
:10008000AD39B107E1F70E94B8070C9498130C94AE
:100090000000EF92FF920F931F937B018C0120E0F1
:1000A00030E040E05FE40E94490388238CF0C801FF
:1000B000B70120E030E040E05FE40E94C1010E940F
:1000C000A9039B01AC01205030404040504806C07D
:1000D000C801B7010E94A9039B01AC01B901CA0183
:1000E0001F910F91FF90EF900895A0E0B0E0EBE733
:1000F000F0E00C946113DC012B01FA019C91923029
:1001000008F439C1EB018881823008F433C194309E
:1001100069F4843009F02FC111969C91119789815F
:10012000981709F428C1A1EBB0E025C1843009F487
:1001300021C18230A9F4923009F01DC19A01AD01AC
:1001400088E0EA010990AE01E90109929E0181501F
:10015000C1F7E201898111969C918923818308C1AD
:10016000923009F407C112962D903C901397EB0141
:100170008A819B811496AD90BD90CD90DC901797AD
:10018000EC80FD800E811F819101281B390BB90184
:1001900037FF04C066277727621B730B6032710537
:1001A0000CF061C0121613066CF537014801062EDB
:1001B00004C096948794779467940A94D2F721E0C8
:1001C00030E040E050E004C0220F331F441F551FB1
:1001D0006A95D2F721503040404050402E213F21B7
:1001E00040235123211531054105510521F021E01E
:1001F00030E040E050E079018A01E628F72808293C
:1002000019293CC0232BD1F1260E371E350146019A
:10021000062E04C096948794779467940A94D2F734
:1002200021E030E040E050E004C0220F331F441FC3
:10023000551F6A95D2F721503040404050402A2146
:100240003B214C215D21211531054105510521F04E
:1002500021E030E040E050E059016A01A628B728CB
:10026000C828D9280BC0821593052CF01C01AA249C
:10027000BB24650103C0EE24FF24870111969C91E5
:10028000D20111968C91981709F445C0992339F041
:10029000A80197012A193B094C095D0906C0A6016E
:1002A00095012E193F09400B510B57FD08C01182D3
:1002B0003382228224833583468357831DC081E0A5
:1002C00081833382228288279927DC01821B930B4A
:1002D000A40BB50B84839583A683B7830DC0220F2F
:1002E000331F441F551F24833583468357838281E0
:1002F000938101979383828324813581468157813D
:10030000DA01C9010197A109B1098F5F9F4FAF4F72
:10031000BF4328F30BC0918333822282EA0CFB1C7B
:100320000C1D1D1DE482F5820683178383E0808304
:10033000248135814681578157FF1AC0C901AA27F8
:1003400097FDA095BA2F81709070A070B0705695EF
:10035000479537952795822B932BA42BB52B848318
:100360009583A683B7838281938101969383828349
:10037000DF0101C0D201CD01CDB7DEB7E2E10C94BF
:100380007D13A0E2B0E0E7ECF1E00C946D1369831B
:100390007A838B839C832D833E834F835887E9E048
:1003A000EE2EF12CEC0EFD1ECE010196B7010E943F
:1003B000D2048E010F5E1F4FCE010596B8010E9438
:1003C000D2048A8991E089278A8BC701B801AE01DE
:1003D000475E5F4F0E9475000E94FD03A096E6E015
:1003E0000C948913A0E2B0E0E8EFF1E00C946D13F7
:1003F00069837A838B839C832D833E834F835887C5
:10040000F9E0EF2EF12CEC0EFD1ECE010196B701A6
:100410000E94D2048E010F5E1F4FCE010596B801D7
:100420000E94D204C701B801AE01475E5F4F0E942F
:1004300075000E94FD03A096E6E00C948913A0E2EB
:10044000B0E0E5E2F2E00C94611369837A838B8378
:100450009C832D833E834F835887CE010196BE0136
:10046000675F7F4F0E94D204CE010596BE016F5E8A
:100470007F4F0E94D2049985923088F0898982301A
:10048000C8F0943019F4823051F404C0843029F457
:10049000923081F481EB90E0C6C0923049F420E0C4
:1004A0009A858A89981321E02A87CE010996BBC0D4
:1004B000823049F420E09A858A89981321E02A8BBA
:1004C000CE014196B0C02D843E844F8458886D88FB
:1004D0007E888F88988CEE24FF248701AA24BB2471
:1004E000650140E050E060E070E0E0E0F0E0C10174
:1004F00081709070892BE9F0E60CF71C081D191D1E
:100500009A01AB012A0D3B1D4C1D5D1D80E090E062
:10051000A0E0B0E0E614F7040805190520F481E036
:1005200090E0A0E0B0E0BA01A901480F591F6A1F8E
:100530007B1FAA0CBB1CCC1CDD1C97FE08C081E0F5
:1005400090E0A0E0B0E0A82AB92ACA2ADB2A3196B6
:10055000E032F10549F0660C771C881C991C569412
:10056000479437942794C3CFFA85EA892B893C892D
:100570008B859C85280F391F2E5F3F4F17C0CA01FE
:1005800081709070892B61F016950795F794E79428
:1005900080E090E0A0E0B0E8E82AF92A0A2B1B2BC3
:1005A00076956795579547952F5F3F4F77FDE7CF36
:1005B0000CC0440F551F661F771F17FD4160EE0CDE
:1005C000FF1C001F111F21503040403090E05907A0
:1005D00090E0690790E4790760F32B8F3C8FDB0193
:1005E000CA018F779070A070B07080349105A1051A
:1005F000B10561F447FD0AC0E114F10401051105DC
:1006000029F0405C5F4F6F4F7F4F40781A8EFE1786
:1006100011F081E08A8F4D8F5E8F6F8F78A383E01A
:10062000898FCE0149960E94FD03A096E2E10C94C9
:100630007D13A8E1B0E0EFE1F3E00C946D13698362
:100640007A838B839C832D833E834F83588789E0F5
:10065000E82EF12CEC0EFD1ECE010196B7010E9492
:10066000D2048E010F5E1F4FCE010596B8010E9485
:10067000D2048985823040F08989823028F0C70110
:10068000B8010E944A0501C08FEF6896E6E00C941D
:100690008913A8E1B0E0EFE4F3E00C946D136983F3
:1006A0007A838B839C832D833E834F83588789E095
:1006B000E82EF12CEC0EFD1ECE010196B7010E9432
:1006C000D2048E010F5E1F4FCE010596B8010E9425
:1006D000D2048985823040F08989823028F0C701B0
:1006E000B8010E944A0501C08FEF6896E6E00C94BD
:1006F0008913A8E1B0E0EFE7F3E00C946D13698390
:100700007A838B839C832D833E834F83588789E034
:10071000E82EF12CEC0EFD1ECE010196B7010E94D1
:10072000D2048E010F5E1F4FCE010596B8010E94C4
:10073000D2048985823040F08989823028F0C7014F
:10074000B8010E944A0501C081E06896E6E00C9479
:100750008913ACE0B0E0EFEAF3E00C947113698325
:100760007A838B839C83CE010196BE016B5F7F4FA2
:100770000E94D2048D81823061F1823050F1843048
:1007800021F48E81882351F12EC02F81388537FDC9
:1007900020C06E812F3131051CF06623F9F023C093
:1007A0008EE190E0821B930B29853A854B855C8511
:1007B00004C056954795379527958A95D2F76623B5
:1007C000B1F050954095309521953F4F4F4F5F4F79
:1007D0000EC020E030E040E050E009C02FEF3FEFD6
:1007E0004FEF5FE704C020E030E040E050E8B9019F
:1007F000CA012C96E2E00C948D13DF92EF92FF92E7
:100800000F931F93FC01E480F58006811781D1804E
:100810008081823048F480E090E0A0E1B0E0E82AF6
:10082000F92A0A2B1B2BA5C0843009F49FC0823003
:1008300021F4EE24FF24870105C0E114F104010531
:10084000110519F4E0E0F0E096C0628173819FEF3A
:10085000623879070CF05BC022E83FEF261B370BAC
:100860002A3131052CF020E030E040E050E02AC091
:10087000B801A701022E04C0769567955795479554
:100880000A94D2F781E090E0A0E0B0E004C0880FC5
:10089000991FAA1FBB1F2A95D2F70197A109B10979
:1008A0008E219F21A023B1230097A105B10521F03E
:1008B00081E090E0A0E0B0E09A01AB01282B392B59
:1008C0004A2B5B2BDA01C9018F779070A070B07052
:1008D00080349105A105B10539F427FF09C0205CDA
:1008E0003F4F4F4F5F4F04C0215C3F4F4F4F5F4F13
:1008F000E0E0F0E02030A0E03A07A0E04A07A0E402
:100900005A0710F0E1E0F0E079018A0127C0603871
:10091000710564F5FB01E158FF4FD801C7018F77DE
:100920009070A070B07080349105A105B10539F4C4
:10093000E7FE0DC080E490E0A0E0B0E004C08FE3EB
:1009400090E0A0E0B0E0E80EF91E0A1F1B1F17FFA1
:1009500005C016950795F794E794319687E01695AC
:100960000795F794E7948A95D1F705C0EE24FF2404
:100970008701EFEFF0E06E2F679566276795902F60
:100980009F77D794DD24D7948E2F8695492F462BB9
:10099000582F5D29B701CA011F910F91FF90EF9069
:1009A000DF900895FC01DB01408151812281622F9B
:1009B0006F7770E0221F2227221F9381892F880FD3
:1009C000822B282F30E0991F9927991F11969C930D
:1009D000119721153105A9F54115510561057105DD
:1009E00011F482E037C082E89FEF13969C938E93B8
:1009F00012979A01AB0167E0220F331F441F551F66
:100A00006A95D1F783E08C930DC0220F331F441FEA
:100A1000551F12968D919C911397019713969C9355
:100A20008E931297203080E0380780E0480780E4FA
:100A3000580758F314962D933D934D935C93179755
:100A400008952F3F310579F4411551056105710570
:100A500019F484E08C93089564FF03C081E08C93C3
:100A600012C01C9210C02F57304013963C932E9307
:100A7000129783E08C9387E0440F551F661F771F02
:100A80008A95D1F7706414964D935D936D937C9322
:100A9000179708951F93DC01FB019C91923008F495
:100AA00047C08081823008F443C0943051F41196DD
:100AB0001C91843099F58181682F70E0611B710968
:100AC0003FC0843021F0923031F48230B9F181811D
:100AD000882389F12DC011961C9111978230F1F075
:100AE00081811817D9F412962D913C911397828128
:100AF00093818217930794F028173907BCF0149656
:100B00008D919D910D90BC91A02D248135814681C0
:100B10005781281739074A075B0718F4112341F05A
:100B20000AC082179307A407B50740F4112319F0F0
:100B300061E070E005C06FEF7FEF02C060E070E041
:100B4000CB011F910895DF93CF93CDB7DEB790917E
:100B5000930181E08927809393019091930180E034
:100B600067E0492F0E947809CF91DF910895DF93C4
:100B7000CF9300D00F92CDB7DEB78B838FE68A83F9
:100B80008B818053898389818A3010F48EE68A8331
:100B90008A810F900F900F90CF91DF910895DF938E
:100BA000CF9300D00F92CDB7DEB79A8389836B8342
:100BB000E981FA8180819181A281B3812AE030E0CC
:100BC00040E050E0BC01CD010E9420139B01AC012C
:100BD0008B81882F90E0C097AA2797FDA095BA2F08
:100BE000820F931FA41FB51FE981FA81808391832F
:100BF000A283B3830F900F900F90CF91DF91089550
:100C0000DF93CF93CDB7DEB728970FB6F894DEBF4A
:100C10000FBECDBF69837A838B839C832D833E83F4
:100C20004F8358878D819E81AF81B8852CE330E05A
:100C300040E050E0BC01CD010E943F13DA01C90140
:100C40009C01AD0189819A81AB81BC81820F931F88
:100C5000A41FB51F8093870190938801A0938901F9
:100C6000B0938A018D819E81AF81B8852CE330E0FD
:100C700040E050E0BC01CD010E943F13DC01CB01FC
:100C80000196A11DB11D8093830190938401A093CF
:100C90008501B093860128960FB6F894DEBF0FBE8B
:100CA000CDBFCF91DF910895DF93CF930F92CDB752
:100CB000DEB780918201813009F0E3C08091830129
:100CC00090918401A0918501B09186010197A109BD
:100CD000B1098093830190938401A0938501B0931F
:100CE000860184E0898381E064E00E94531106C09C
:100CF00082E00E94C40C89818F5F89838981803161
:100D0000B8F384E0898381E064E00E94531180910C
:100D1000870190918801A0918901B0918A01BC015D
:100D2000CD010E948C1081E06AE00E9453118091F5
:100D3000830190918401A0918501B0918601BC014D
:100D4000CD010E948C108091830190918401A0912B
:100D50008501B09186010097A105B10569F08091E8
:100D6000870190918801A0918901B0918A01009733
:100D7000A105B10509F085C080918301909184019E
:100D8000A0918501B09186010097A105B10561F59B
:100D90008091870190918801A0918901B0918A0189
:100DA0000097A105B10501F180918701909188011B
:100DB000A0918901B0918A010197A109B10980939D
:100DC000870190938801A0938901B0938A018CE3F5
:100DD00090E0A0E0B0E08093830190938401A09321
:100DE0008501B09386014DC080918301909184016B
:100DF000A0918501B09186010097A105B10509F088
:100E000040C08091870190918801A0918901B091A3
:100E10008A010097A105B105A1F581E064E00E9477
:100E2000531106C082E00E94C40C89818F5F8983C0
:100E300089818031B8F384E0898381E064E00E9495
:100E400053118091870190918801A0918901B091FF
:100E50008A01BC01CD010E948C1081E06AE00E94F1
:100E600053118091830190918401A0918501B091EB
:100E70008601BC01CD010E948C100E94A305109236
:100E800082010F90CF91DF910895DF93CF9300D02F
:100E900000D0CDB7DEB781E08B831A8219820E9421
:100EA000CA0B8C8303C00E94CA0B8C838C818F3F3A
:100EB000D1F38C810E94B7058E36A9F70E940410E9
:100EC00080E060E00E94531180919401882361F4D6
:100ED00080E690E00E94E70F8BE891E09A83898397
:100EE00081E0809394010EC080919401813051F48F
:100EF0008BE690E00E94E70F8FE891E09A83898368
:100F0000109294018C810E94490F89819A816C8191
:100F10000E94CF050E94CA0B8C8320C08C818F3F1A
:100F200091F08C81803378F08C818A3360F48C81ED
:100F30000E94490F89819A816C810E94CF050E948D
:100F4000CA0B8C830BC08C818F3F29F08C818D3331
:100F500011F41B8203C00E94CA0B8C838B818130E9
:100F6000E9F20F900F900F900F90CF91DF910895BD
:100F7000DF93CF93CDB7DEB70E943A0880E06FEFE2
:100F80000E94180B82E06FEF0E94180B81E06FE067
:100F90000E94180B0E94CE120E94620D8091820165
:100FA0008823E1F710928B0110928C0110928D0131
:100FB00010928E0110928F01109290011092910167
:100FC000109292010E94041080E062E00E9453118E
:100FD00086E790E00E94E70F81E062E00E945311F3
:100FE00084E890E00E94E70F0E9445070E940410E9
:100FF00080E062E00E94531181E990E00E94E70FD7
:1010000081E062E00E94531184E890E00E94E70FC3
:101010000E9445070E94041080E060E00E94531186
:101020008FE990E00E94E70F80E069E00E94531191
:1010300089EA90E00E94E70F80918B0190918C01EA
:10104000A0918D01B0918E0120918F01309190017E
:101050004091910150919201BC01CD010E94000686
:1010600084E596E00E940E130E94AE0B81E080930F
:10107000820194CFDF93CF93CDB7DEB7EAE3F0E000
:101080008FEF8083E7E3F0E080EF8083E4E3F0E03C
:101090008FEF8083E1E3F0E08FEF8083EBE3F0E01C
:1010A0001082E8E3F0E08FEF8083E5E3F0E0108268
:1010B000E2E3F0E01082CF91DF910895DF93CF93C8
:1010C000CDB7DEB72D970FB6F894DEBF0FBECDBFFC
:1010D00089836A834B838981843008F000C18981C8
:1010E000282F30E03D872C878C859D8581309105A8
:1010F00009F44FC02C853D85223031052CF48C85B8
:101100009D85009771F0EBC02C853D85223031051F
:1011100009F477C08C859D858330910509F4A9C0B9
:10112000DEC08B81282F30E03B872A878A859B850C
:101130000097D1F02A853B852130310509F0CFC0D9
:10114000AAE3B0E0EAE3F0E08081482F8A81282F0B
:1011500030E081E090E0022E02C0880F991F0A94CF
:10116000E2F7842B8C93BBC0AAE3B0E0EAE3F0E0A3
:101170008081482F8A81282F30E081E090E0022E84
:1011800002C0880F991F0A94E2F7809584238C93FC
:10119000A6C08B81282F30E03987288788859985DC
:1011A0000097D1F0288539852130310509F097C0A5
:1011B000A7E3B0E0E7E3F0E08081482F8A81282FA1
:1011C00030E081E090E0022E02C0880F991F0A945F
:1011D000E2F7842B8C9383C0A7E3B0E0E7E3F0E071
:1011E0008081482F8A81282F30E081E090E0022E14
:1011F00002C0880F991F0A94E2F7809584238C938C
:101200006EC08B81282F30E03F832E838E819F819B
:101210000097D1F02E813F812130310509F05FC068
:10122000A4E3B0E0E4E3F0E08081482F8A81282F36
:1012300030E081E090E0022E02C0880F991F0A94EE
:10124000E2F7842B8C934BC0A4E3B0E0E4E3F0E03E
:101250008081482F8A81282F30E081E090E0022EA3
:1012600002C0880F991F0A94E2F7809584238C931B
:1012700036C08B81282F30E03D832C838C819D816B
:101280000097C9F02C813D812130310541F5A1E362
:10129000B0E0E1E3F0E08081482F8A81282F30E040
:1012A00081E090E0022E02C0880F991F0A94E2F7B5
:1012B000842B8C9314C0A1E3B0E0E1E3F0E08081E3
:1012C000482F8A81282F30E081E090E0022E02C072
:1012D000880F991F0A94E2F7809584238C932D96AA
:1012E0000FB6F894DEBF0FBECDBFCF91DF9108954A
:1012F000DF93CF93CDB7DEB72D970FB6F894DEBF4F
:101300000FBECDBF89836A834B838981843008F007
:1013100004C18A81883008F000C18981282F30E01B
:101320003D872C878C859D858130910509F44FC0C0
:101330002C853D85223031052CF48C859D850097C8
:1013400071F0EBC02C853D852230310509F477C062
:101350008C859D858330910509F4A9C0DEC08B8101
:10136000282F30E03B872A878A859B850097D1F01C
:101370002A853B852130310509F0CFC0ABE3B0E0D1
:10138000EBE3F0E08081482F8A81282F30E081E074
:1013900090E0022E02C0880F991F0A94E2F7842B76
:1013A0008C93BBC0ABE3B0E0EBE3F0E08081482F6F
:1013B0008A81282F30E081E090E0022E02C0880F61
:1013C000991F0A94E2F7809584238C93A6C08B81A1
:1013D000282F30E039872887888599850097D1F0B4
:1013E000288539852130310509F097C0A8E3B0E0A0
:1013F000E8E3F0E08081482F8A81282F30E081E007
:1014000090E0022E02C0880F991F0A94E2F7842B05
:101410008C9383C0A8E3B0E0E8E3F0E08081482F3C
:101420008A81282F30E081E090E0022E02C0880FF0
:10143000991F0A94E2F7809584238C936EC08B8168
:10144000282F30E03F832E838E819F810097D1F03B
:101450002E813F812130310509F05FC0A5E3B0E066
:10146000E5E3F0E08081482F8A81282F30E081E099
:1014700090E0022E02C0880F991F0A94E2F7842B95
:101480008C934BC0A5E3B0E0E5E3F0E08081482F0A
:101490008A81282F30E081E090E0022E02C0880F80
:1014A000991F0A94E2F7809584238C9336C08B8130
:1014B000282F30E03D832C838C819D810097C9F0DB
:1014C0002C813D812130310541F5A2E3B0E0E2E31A
:1014D000F0E08081482F8A81282F30E081E090E081
:1014E000022E02C0880F991F0A94E2F7842B8C9376
:1014F00014C0A2E3B0E0E2E3F0E08081482F8A81EB
:10150000282F30E081E090E0022E02C0880F991F62
:101510000A94E2F7809584238C932D960FB6F89465
:10152000DEBF0FBECDBFCF91DF910895DF93CF9384
:1015300000D000D00F92CDB7DEB78A836B831982BB
:101540008A81843008F06BC08B81883008F067C0D6
:101550008A81282F30E03D832C834C815D8141308E
:10156000510541F18C819D818230910534F42C81AB
:101570003D812115310561F052C04C815D814230C1
:10158000510551F18C819D8183309105B9F147C09E
:10159000E9E3F0E08081282F30E08B81882F90E014
:1015A000A90102C0559547958A95E2F7CA01817055
:1015B000898335C0E6E3F0E08081282F30E08B811D
:1015C000882F90E0A90102C0559547958A95E2F7CA
:1015D000CA018170898323C0E3E3F0E08081282F72
:1015E00030E08B81882F90E0A90102C05595479586
:1015F0008A95E2F7CA018170898311C0E0E3F0E0C7
:101600008081282F30E08B81882F90E0A90102C0D3
:10161000559547958A95E2F7CA018170898389813A
:101620000F900F900F900F900F90CF91DF91089532
:10163000DF93CF9300D000D0CDB7DEB789836A8324
:101640008981843090F58981282F30E03C832B8379
:101650008B819C8181309105D1F02B813C8122309E
:1016600031052CF48B819C81009761F01EC02B8189
:101670003C812230310581F08B819C818330910542
:1016800081F013C0EAE3F0E08A8180830EC0E7E3D3
:10169000F0E08A81808309C0E4E3F0E08A818083FE
:1016A00004C0E1E3F0E08A8180830F900F900F90F7
:1016B0000F90CF91DF910895DF93CF9300D000D0AA
:1016C000CDB7DEB789836A838981843090F58981BB
:1016D000282F30E03C832B838B819C8181309105C6
:1016E000D1F02B813C81223031052CF48B819C81FF
:1016F000009761F01EC02B813C812230310581F0C2
:101700008B819C818330910581F013C0EBE3F0E085
:101710008A8180830EC0E8E3F0E08A81808309C07B
:10172000E5E3F0E08A81808304C0E2E3F0E08A81AF
:1017300080830F900F900F900F90CF91DF910895BD
:10174000DF93CF93CDB7DEB7AFE5B0E0EFE5F0E0E4
:1017500080818F778C93CF91DF910895DF93CF9322
:10176000CDB7DEB7AFE5B0E0EFE5F0E080818068AF
:101770008C93CF91DF910895DF93CF93CDB7DEB7F0
:10178000AFE5B0E0EFE5F0E080818F778C93CF910B
:10179000DF910895DF93CF93CDB7DEB763970FB690
:1017A000F894DEBF0FBECDBF8FEF888B1F861B8ADC
:1017B000DDC08B89882F90E0FC01E753FF4F9081BB
:1017C00081E0692F40E00E9478091A8AB9C08A89AD
:1017D000882F90E0FC01E353FF4F908181E0692F57
:1017E0000E94960A898B8989882309F0A6C080E027
:1017F00090E0A0EAB1E48B879C87AD87BE876B85BC
:101800007C858D859E8520E030E04AEF54E40E947F
:101810001F02DC01CB018F839887A987BA876F816C
:10182000788589859A8520E030E040E85FE30E9472
:10183000790388232CF481E090E09E838D833FC060
:101840006F81788589859A8520E03FEF4FE757E4DF
:101850000E94190318164CF56B857C858D859E8535
:1018600020E030E040E251E40E941F02DC01CB01A5
:10187000BC01CD010E944900DC01CB019E838D8318
:101880000FC088EC90E09C838B838B819C810197B7
:10189000F1F79C838B838D819E8101979E838D833D
:1018A0008D819E81009769F714C06F817885898545
:1018B0009A850E944900DC01CB019E838D838D8136
:1018C0009E819A83898389819A810197F1F79A830E
:1018D00089838A89882F90E0FC01E353FF4F908130
:1018E00081E0692F0E94960A898B8989882329F5CE
:1018F0000CC08A89882F90E0FC01E353FF4F908150
:1019000081E0692F0E94960A898B8989882389F34F
:101910008B89482F50E08A89282F30E0CA01880F30
:10192000991F880F991F820F931FFC01E754FF4FE7
:101930008081888B81E08F8707C08A898F5F8A8B3F
:101940008A89843008F443CF8B89882F90E0FC018A
:10195000E753FF4F908181E0692F41E00E947809B1
:101960008F85813039F08B898F5F8B8B8B898430A9
:1019700008F41FCF888963960FB6F894DEBF0FBEB8
:10198000CDBFCF91DF910895DF93CF93CDB7DEB771
:101990002F970FB6F894DEBF0FBECDBF8F8780E0C4
:1019A00062E040E00E94780980E061E040E00E944F
:1019B000780982E06F850E945C0B80E060E041E086
:1019C0000E94780980E090E0A0E0B0E48B879C87DB
:1019D000AD87BE876B857C858D859E8520E030E058
:1019E0004AEF54E40E941F02DC01CB018F839887E9
:1019F000A987BA876F81788589859A8520E030E04C
:101A000040E85FE30E94790388232CF481E090E0B2
:101A10009E838D833FC06F81788589859A8520E07C
:101A20003FEF4FE757E40E94190318164CF56B85FA
:101A30007C858D859E8520E030E040E251E40E9467
:101A40001F02DC01CB01BC01CD010E944900DC0179
:101A5000CB019E838D830FC088EC90E09C838B83A9
:101A60008B819C810197F1F79C838B838D819E8173
:101A700001979E838D838D819E81009769F714C0A5
:101A80006F81788589859A850E944900DC01CB01A8
:101A90009E838D838D819E819A83898389819A819A
:101AA0000197F1F79A83898380E060E040E00E942B
:101AB00078092F960FB6F894DEBF0FBECDBFCF9139
:101AC000DF910895DF93CF93CDB7DEB7E8970FB6D8
:101AD000F894DEBF0FBECDBF80E090E0A0EFB1E490
:101AE0008DAB9EABAFABB8AF6DA97EA98FA998ADFA
:101AF00020E030E04AEF54E40E941F02DC01CB01F9
:101B000089AB9AABABABBCAB69A97AA98BA99CA9F1
:101B100020E030E040E85FE30E94790388232CF462
:101B200081E090E098AB8FA73FC069A97AA98BA903
:101B30009CA920E03FEF4FE757E40E9419031816D5
:101B40004CF56DA97EA98FA998AD20E030E040E268
:101B500051E40E941F02DC01CB01BC01CD010E94B7
:101B60004900DC01CB0198AB8FA70FC088EC90E057
:101B70009EA78DA78DA59EA50197F1F79EA78DA77E
:101B80008FA598A9019798AB8FA78FA598A90097C3
:101B900069F714C069A97AA98BA99CA90E94490078
:101BA000DC01CB0198AB8FA78FA598A99CA78BA729
:101BB0008BA59CA50197F1F79CA78BA78CE30E94AE
:101BC000C40C80E090E0A0E8BFE38FA398A7A9A78A
:101BD000BAA76FA178A589A59AA520E030E04AEFC1
:101BE00054E40E941F02DC01CB018BA39CA3ADA394
:101BF000BEA36BA17CA18DA19EA120E030E040E8B6
:101C00005FE30E94790388232CF481E090E09AA39B
:101C100089A33FC06BA17CA18DA19EA120E03FEFD5
:101C20004FE757E40E94190318164CF56FA178A5E9
:101C300089A59AA520E030E040E251E40E941F020D
:101C4000DC01CB01BC01CD010E944900DC01CB01CC
:101C50009AA389A30FC088EC90E098A38F8F8F8DF3
:101C600098A10197F1F798A38F8F89A19AA1019765
:101C70009AA389A389A19AA1009769F714C06BA1BF
:101C80007CA18DA19EA10E944900DC01CB019AA3F9
:101C900089A389A19AA19E8F8D8F8D8D9E8D01978D
:101CA000F1F79E8F8D8F8CE00E94C40C80E090E055
:101CB000A0E8BFE3898F9A8FAB8FBC8F698D7A8D37
:101CC0008B8D9C8D20E030E04AEF54E40E941F028F
:101CD000DC01CB018D8B9E8BAF8BB88F6D897E899C
:101CE0008F89988D20E030E040E85FE30E9479031F
:101CF00088232CF481E090E09C8B8B8B3FC06D8916
:101D00007E898F89988D20E03FEF4FE757E40E944E
:101D1000190318164CF5698D7A8D8B8D9C8D20E0FA
:101D200030E040E251E40E941F02DC01CB01BC0123
:101D3000CD010E944900DC01CB019C8B8B8B0FC035
:101D400088EC90E09A8B898B89899A890197F1F7C1
:101D50009A8B898B8B899C8901979C8B8B8B8B8928
:101D60009C89009769F714C06D897E898F89988D49
:101D70000E944900DC01CB019C8B8B8B8B899C8959
:101D8000988B8F878F8598890197F1F7988B8F872C
:101D900081E00E94C40C80E090E0A0E0B0E48B877A
:101DA0009C87AD87BE876B857C858D859E8520E071
:101DB00030E04AEF54E40E941F02DC01CB018F8324
:101DC0009887A987BA876F81788589859A8520E069
:101DD00030E040E85FE30E94790388232CF481E03F
:101DE00090E09E838D833FC06F81788589859A8539
:101DF00020E03FEF4FE757E40E94190318164CF517
:101E00006B857C858D859E8520E030E040E251E445
:101E10000E941F02DC01CB01BC01CD010E944900E0
:101E2000DC01CB019E838D830FC088EC90E09C8306
:101E30008B838B819C810197F1F79C838B838D81B0
:101E40009E8101979E838D838D819E81009769F786
:101E500014C06F81788589859A850E944900DC01CC
:101E6000CB019E838D838D819E819A838983898115
:101E70009A810197F1F79A83898386E00E94C40CC6
:101E8000E8960FB6F894DEBF0FBECDBFCF91DF91BD
:101E90000895DF93CF93CDB7DEB72F970FB6F894A1
:101EA000DEBF0FBECDBF8F8780E062E041E00E94C1
:101EB000780980E061E040E00E94780982E06F8567
:101EC0000E945C0B80E060E041E00E94780980E0C5
:101ED00090E0A0E4B0E48B879C87AD87BE876B85DC
:101EE0007C858D859E8520E030E04AEF54E40E9499
:101EF0001F02DC01CB018F839887A987BA876F8186
:101F0000788589859A8520E030E040E85FE30E948B
:101F1000790388232CF481E090E09E838D833FC079
:101F20006F81788589859A8520E03FEF4FE757E4F8
:101F30000E94190318164CF56B857C858D859E854E
:101F400020E030E040E251E40E941F02DC01CB01BE
:101F5000BC01CD010E944900DC01CB019E838D8331
:101F60000FC088EC90E09C838B838B819C810197D0
:101F7000F1F79C838B838D819E8101979E838D8356
:101F80008D819E81009769F714C06F81788589855E
:101F90009A850E944900DC01CB019E838D838D814F
:101FA0009E819A83898389819A810197F1F79A8327
:101FB000898380E060E040E00E9478092F960FB6A8
:101FC000F894DEBF0FBECDBFCF91DF910895DF93B0
:101FD000CF9300D0CDB7DEB79A8389830BC0E98158
:101FE000FA81208189819A8101969A838983822F3F
:101FF0000E94490FE981FA818081882381F70F903F
:102000000F90CF91DF910895DF93CF93CDB7DEB7D7
:102010002E970FB6F894DEBF0FBECDBF81E00E94B1
:10202000C40C80E090E0A0E0B0E48B879C87AD8793
:10203000BE876B857C858D859E8520E030E04AEFEC
:1020400054E40E941F02DC01CB018F839887A9878B
:10205000BA876F81788589859A8520E030E040E8ED
:102060005FE30E94790388232CF481E090E09E8353
:102070008D833FC06F81788589859A8520E03FEF09
:102080004FE757E40E94190318164CF56B857C85C1
:102090008D859E8520E030E040E251E40E941F02E1
:1020A000DC01CB01BC01CD010E944900DC01CB0168
:1020B0009E838D830FC088EC90E09C838B838B8103
:1020C0009C810197F1F79C838B838D819E81019781
:1020D0009E838D838D819E81009769F714C06F81E7
:1020E000788589859A850E944900DC01CB019E8311
:1020F0008D838D819E819A83898389819A810197BD
:10210000F1F79A8389832E960FB6F894DEBF0FBE3F
:10211000CDBFCF91DF910895DF93CF93CDB7DEB7D9
:1021200062970FB6F894DEBF0FBECDBF6F87788B76
:10213000898B9A8B1D8619861A861B861C861D82A2
:102140001E821F8218868F859889A989BA8900976F
:10215000A105B10519F480E30E94490F8F85988984
:10216000A989BA89BB2394F48DE20E94490F8F8517
:102170009889A989BA89B095A095909581959F4F26
:10218000AF4FBF4F8F87988BA98BBA8B8F8598895C
:10219000A989BA8989879A87AB87BC8741C0898515
:1021A0009A85AB85BC852AE030E040E050E0BC0178
:1021B000CD010E943F13DC01CB0189839A83AB835D
:1021C000BC838D819E81AF81B8852AE030E040E0FC
:1021D00050E0BC01CD010E9420139B01AC0189811C
:1021E0009A81AB81BC81820F931FA41FB51F8D8381
:1021F0009E83AF83B88789859A85AB85BC852AE0A5
:1022000030E040E050E0BC01CD010E943F13DA0114
:10221000C90189879A87AB87BC878D858F5F8D873A
:1022200089859A85AB85BC850097A105B10509F024
:10223000B6CF2DC08D819E81AF81B8852AE030E078
:1022400040E050E0BC01CD010E943F13DC01CB0116
:1022500089839A83AB83BC838D819E81AF81B8854E
:102260002AE030E040E050E0BC01CD010E943F1385
:10227000DA01C9018D839E83AF83B8878981805D30
:102280008E878E850E94490F8D8581508D878D8523
:10229000882381F662960FB6F894DEBF0FBECDBFDD
:1022A000CF91DF910895DF93CF93CDB7DEB76297DB
:1022B0000FB6F894DEBF0FBECDBF8F87688B8F85BA
:1022C0008230D8F488898031C0F48F85282F30E09F
:1022D0003A8B298B89899A89009731F029893A8923
:1022E0002130310531F009C0888980580E94C40C22
:1022F00004C0888980540E94C40C80E090E0A0E86B
:10230000BFE38B879C87AD87BE876B857C858D857A
:102310009E8520E030E04AEF54E40E941F02DC0179
:10232000CB018F839887A987BA876F817885898544
:102330009A8520E030E040E85FE30E94790388233B
:102340002CF481E090E09E838D833FC06F8178857F
:1023500089859A8520E03FEF4FE757E40E941903F3
:1023600018164CF56B857C858D859E8520E030E0C8
:1023700040E251E40E941F02DC01CB01BC01CD010F
:102380000E944900DC01CB019E838D830FC088EC45
:1023900090E09C838B838B819C810197F1F79C83D8
:1023A0008B838D819E8101979E838D838D819E81FC
:1023B000009769F714C06F81788589859A850E9496
:1023C0004900DC01CB019E838D838D819E819A83A0
:1023D000898389819A810197F1F79A83898362962B
:1023E0000FB6F894DEBF0FBECDBFCF91DF91089539
:1023F000DF93CF93CDB7DEB727970FB6F894DEBF44
:102400000FBECDBF9C838B836D834E832F838D81C5
:10241000882F90E0880F991F880F991F880F991FA8
:102420008A838A8180648A838A810E94C40C19828B
:102430000EC08981282F30E08B819C81FC01E20F46
:10244000F31F80810E94490F89818F5F8983898171
:10245000883078F38E816F810E9453118D810E94A4
:10246000490F27960FB6F894DEBF0FBECDBFCF91B0
:10247000DF9108951F920F920FB60F9211242F93A0
:102480003F934F935F936F937F938F939F93AF93FC
:10249000BF93EF93FF93DF93CF93CDB7DEB78091D8
:1024A000990190919A01019690939A0180939901D4
:1024B0008091990190919A012CE08931920799F4C9
:1024C000E2E5F0E080EC808310929A01109299018D
:1024D0008091950190919601009729F0E0919501E6
:1024E000F09196010995CF91DF91FF91EF91BF9106
:1024F000AF919F918F917F916F915F914F913F919C
:102500002F910F900FBE0F901F9018951F920F9252
:102510000FB60F9211242F933F934F935F936F93B6
:102520007F938F939F93AF93BF93EF93FF93DF932B
:10253000CF93CDB7DEB780919B0190919C0101961E
:1025400090939C0180939B0180919B0190919C01B1
:1025500027E28031920779F410929C0110929B013E
:102560008091970190919801009729F0E09197014F
:10257000F09198010995CF91DF91FF91EF91BF9173
:10258000AF919F918F917F916F915F914F913F910B
:102590002F910F900FBE0F901F901895DF93CF9340
:1025A000CDB7DEB7A3E5B0E0E3E5F0E08081886079
:1025B0008C93A3E5B0E0E3E5F0E080818F7B8C9322
:1025C000A9E5B0E0E9E5F0E0808182608C93ECE57C
:1025D000F0E083E68083A3E5B0E0E3E5F0E080810E
:1025E000887F8C93A3E5B0E0E3E5F0E08081826032
:1025F0008C93CF91DF910895DF93CF9300D0CDB727
:10260000DEB79A83898389819A819093960180931A
:1026100095010F900F90CF91DF910895DF93CF93A5
:1026200000D0CDB7DEB79A83898389819A81909350
:102630009801809397010F900F90CF91DF910895AB
:10264000629FD001739FF001829FE00DF11D649F96
:10265000E00DF11D929FF00D839FF00D749FF00D22
:10266000659FF00D9927729FB00DE11DF91F639FC3
:10267000B00DE11DF91FBD01CF0111240895A1E2A4
:102680001A2EAA1BBB1BFD010DC0AA1FBB1FEE1FEC
:10269000FF1FA217B307E407F50720F0A21BB30B37
:1026A000E40BF50B661F771F881F991F1A9469F7B3
:1026B00060957095809590959B01AC01BD01CF010F
:1026C00008952F923F924F925F926F927F928F92D6
:1026D0009F92AF92BF92CF92DF92EF92FF920F93B1
:1026E0001F93CF93DF93CDB7DEB7CA1BDB0B0FB6BB
:1026F000F894DEBF0FBECDBF09942A883988488878
:102700005F846E847D848C849B84AA84B984C8840D
:10271000DF80EE80FD800C811B81AA81B981CE0F04
:10272000D11D0FB6F894DEBF0FBECDBFED010895E9
:04273000F894FFCF4B
:102734004D494E55544553203D20005345434F4E7B
:102744004453203D2000454E544552204D494E559A
:10275400544553005448454E20454E544552203D5F
:1027640000454E544552205345434F4E4453004D6B
:10277400494E55544553203A005345434F4E445314
:102784000000000000000000003738392F343536CF
:102794002A3132332D43303D2B0001020304050658
:1027A4000700000000000003030000000000001800
:1027B4001800000E0E040E040A00000C0C050E0591
:1027C4000A00000606140E140A000E0E040E150E5E
:1027D4000A060E140E15040A0A0C0C05161C050B29
:1027E400100606140D07141A010E0E040E15040A21
:1027F400111C1C080F0C080C0C0000180000000031
:1028040000000000181A0C0E090C0C041C0C040720
:10281400041F181412111010101010101112141893
:102824001F1F000000001F000000001F0000000028
:102834001F1F000000001F080404081F0000000000
:102844001F1F010101011F010101011F01010101FC
:022854001F0063
:00000001FF
